:020000040000FA
:10000000700E0020D5000000EF000000F10000009D
:1000100000000000000000000000000000000000E0
:10002000000000000000000000000000F3000000DD
:100030000000000000000000F5000000F7000000D4
:10004000F90000002D06000059070000F90000002B
:10005000F900000000000000F9000000F9000000B5
:10006000F9000000F90000003D070000F900000061
:10007000F9000000F9000000F9000000F90000009C
:10008000F9000000F9000000F9000000F90000008C
:10009000F9000000F9000000F9000000F90000007C
:1000A000F9000000F900000000000000000000005E
:1000B0000000000000000000000000000000000040
:1000C0000348854600F006FA00480047F90E000094
:1000D000700E00200321094802680A4302600848A4
:1000E00002680A4302600748804707480047FEE766
:1000F000FEE7FEE7FEE7FEE7FEE70000240500401E
:100100005405004005070000C100000003460B43F2
:100110009B0703D009E008C9121F08C0042AFAD2BD
:1001200003E00B780370401C491C521EF9D2704743
:100130000321001D401E037812021A43491EF9D5FF
:1001400010467047034603220870000A491C521EDD
:10015000FAD5184670470000F0B51FB488B00B9967
:100160000998002448400999C00F4900490809919D
:10017000C0070B990090490049080B91099908980C
:10018000A64608431CD00B990A98084318D0099832
:1001900001244000420D4800410D09982405000348
:1001A000000B204309900B980003000B20430B9099
:1001B00050181C494018002201901446104605E0D2
:1001C000002001460DB0F0BD032801DA034600E02F
:1001D00003239C46C11A0AAE0AE05F0008ADED5B3E
:1001E0004F00F75B7D430027AA187C41491C5B1E2A
:1001F0006145F2DD410004AB5A522104120C0A435E
:10020000240C401C0828DFDB0198029000997046FE
:1002100001910090059B049A0799069800F008F94F
:10022000D0E700000DFCFFFFF0B50C465C4085B048
:10023000E40FE40703944C00002664085900944638
:10024000490802460296224321D062460A431ED044
:100250006200570D4A000E032303550D0124024688
:100260002C492405781B1B0B360B401823432643CF
:10027000614600901C46501AB44103D30098401CBC
:10028000009002E0921800985B41002803DA0020F9
:10029000014605B0F0BD002001210905074686464C
:1002A00011E064461D46141BB54106D36546521B3A
:1002B000B341744607430C43A646CD07400849089E
:1002C000284392185B4105460D43EAD11046184376
:1002D00013D06046194650407140084306D060462E
:1002E000101AB34106D20122002306E000220123A6
:1002F000DB0702E00122D243531000987446010547
:10030000381C6141029C039D0019694100F083F88B
:10031000BFE70000FD0300000EB505490291002172
:1003200000910A460B46019100F082F803B000BD2F
:1003300033040000C20FD207400040080BD0C10DAB
:100340000723DB01C91840020905400A1143C2080E
:10035000400711437047002001467047CB0FDB0771
:10036000490010B5490802460A4307D00A0D072480
:100370000903E401090B121B002A01DC002010BD57
:10038000C900440F0C43C100E018D205801800F0EA
:1003900001F810BD002904DA401C490001D14008D1
:1003A0004000704770B40024050C05D110240004EF
:1003B00002D1002921D01124050E01D100020834F8
:1003C000050F01D10001241D850F01D18000A41C5F
:1003D000002801DB4000641C002908D020252E1BCA
:1003E0000D46F540A14000D00121294308430106F4
:1003F0001B1B000ADB1D02D5002070BC7047DB050B
:10040000181880180029F8DA401C4900F5D170BC92
:1004100040084000704710B5002B08DA0024401C4B
:10042000614192185B411A4301D14008400010BD60
:10043000F0B51FB482B005460C0003D0084600F0AA
:10044000C9F902E000F0C6F92030024600902146CA
:10045000284600F051F8049B059A04460F461843BD
:100460001143084314D0184610431BD00098402174
:100470000A1A1846059900F04FF805460E46009AEC
:100480000599049800F038F8084305D0012004E0ED
:100490002046394607B0F0BD0020C11705430E4382
:1004A0002C43374300990E986305401A7905E40AF6
:1004B00000220C43FD0A0A3002D500200146E9E77C
:1004C0000105101969410C9C0D9D00196941FFF748
:1004D000A2FFDFE7064C0125064E05E0E36807CCE6
:1004E0002B430C3C98471034B442F7D3FFF7ECFD94
:1004F000E8190000081A000010B5202A04DB0146A4
:10050000203A9140002010BD914020239C1A0346C0
:10051000E3401943904010BD10B5202A04DB084683
:10052000203AD040002110BD0B46D340D0402024BB
:10053000A21A91400843194610BD000010B50028CA
:1005400019DA1A4A03071B0F083B9B089B00D25875
:100550008307DC0EFF23A3409A438B071B0E8407FF
:10056000E40EA3401A43114B0407240F083CA408CF
:10057000A4001A5118E00E4A03231B02D218830864
:100580009B00D2588307DC0EFF23A3409A438B07BE
:100590001B0E8407E40EA3401A43054B03242402D8
:1005A0001B198408A4001A5110BD00001CED00E0C6
:1005B00000E100E010B5002819DA1A4A03071B0F02
:1005C000083B9B089B00D2588307DC0EFF23A34007
:1005D0009A438B071B0E8407E40EA3401A43114B6A
:1005E0000407240F083CA408A4001A5118E00E4A7E
:1005F00003231B02D21883089B00D2588307DC0E0A
:10060000FF23A3409A438B071B0E8407E40EA340ED
:100610001A43054B032424021B198408A4001A5111
:1006200010BD00001CED00E000E100E010B52D4819
:10063000C068002853D000202A49C8602A480078A2
:10064000002848D0012849D128480068002803D153
:1006500001202749886010BD26490968481CC11738
:10066000090F091809110901411A234A1268914218
:1006700003D101201E498860EDE71E48006827214C
:1006800048431E4944181E488068C1B222200155C3
:100690001649C86821462331FFF754FD6078C0072A
:1006A000C00F00280BD0204600F0B0FB002803D07C
:1006B000012000F023FFCEE7002000F01FFF0D49CE
:1006C0000968481CC117090F091809110901411AC5
:1006D000084A116002E000F0EBFE00BF00BF00BF5F
:1006E000B9E7000000110040510000200014004054
:1006F0000010004054000020580000200F0100208E
:100700004015004010B500F0C1FB002805D0074897
:1007100007494860C8130749886100F09BFB00281F
:1007200002D001200449886010BD0000DFFF07C02F
:1007300000050040006C00400006004004480068CE
:10074000401C03490860002002490860704700000F
:100750007800002040A1004010B517490968481CE6
:100760000021164A9160802800DB002014490968A6
:1007700088420CD113498969134A117011460978CE
:10078000117012490968491C104A116010BD0D49C9
:100790008969CAB208490B680968491C064C21607E
:1007A0000B49CA5421460968802902DB00212246F0
:1007B000116000BFEAE700008C000020002100402B
:1007C00090000020002500408400002080000020D0
:1007D000EF0500202021020C01D010211046020A52
:1007E00001D010460839020901D01046091F8208BD
:1007F00001D01046891E420801D0881E7047081A91
:10080000704730B47446641E2578641CAB4204D330
:10081000635D5B00E31830BC18471D46F8E702E053
:1008200008C8121F08C1002AFAD17047704700207B
:1008300001E001C1121F002AFBD17047024908786C
:100840000021014A117070471400002070B5112179
:10085000032293000524240707252D0264198D0027
:10086000635100BF13461C0495002C4305252D073A
:1008700007263602AD198E00AC5100BF0149087041
:1008800070BD00001400002010B500F0B7FE204934
:10089000096888423BD000F0B1FE1D4908601D4840
:1008A000007800280ED1112000F07CFCC007C00F9A
:1008B000002807D101201749087000F09FFE164953
:1008C000086024E013480078012820D1112000F0AE
:1008D00069FCC007C00F002802D000200D49087035
:1008E00000F08CFE0C490968401A7D21C90088423D
:1008F00003D902200949087009E0112000F052FCD8
:10090000C007C00F002802D001200449087010BDA4
:1009100018000020200000201C00002014000020EF
:1009200070B50446204600F057FE0506200A00F088
:1009300053FE00040543200C00F04EFE0002054368
:10094000200E00F049FE284370BD30B5014600205E
:100950000A46002304E01578521C2C18E0B25B1CF8
:10096000142BF8D30B7CC31AD8B230BD70B5142445
:10097000A008A107890F002901D0012100E0002172
:100980004518012109070969012212075269521EFF
:10099000514308462A46144900F078F91248007875
:1009A0000A280FD11048FFF7D0FF06460E48007CFA
:1009B000B04203D101200D49087002E000200B492C
:1009C000087002E0002009490870084800780028F3
:1009D00009D1142206490448FFF798FB00F0E2FF12
:1009E00001200249087070BDD400002024000020BE
:1009F0002800002008480068411CC817000F401854
:100A000000110001081A054A1268904201D0012025
:100A100070470020FCE700005C0000206000002020
:100A200000B5002200F0C2F8002805D00348006895
:100A30002721484302494218104600BD58000020B3
:100A40000F01002000B50023FFF7D4FF002805D0D8
:100A5000034800682721484302494318184600BD4F
:100A60005C0000207F03002010B501203A49C863D4
:100A700000BF01218140394A116000BF3848007829
:100A80003849C86038480078002804D0012806D0CA
:100A900002280CD107E002203249086107E000205B
:100AA0003049086103E001202E49086100BF00BF02
:100AB0002E4800782B4988602D48006800F08CFD96
:100AC000C0B22C490843274948622B48886228490C
:100AD0000A6809790B06110A19430846FFF720FF37
:100AE0002049C861254808620020C86201200863C7
:100AF0002348486123488861022048632248C8632C
:100B00002248886308202249486001202149086062
:100B100008460068102108431E490860084600681E
:100B2000042108431B490860084600680121084366
:100B300018490860012018490870184800682721E2
:100B40004843174940180749486001201549486043
:100B50001549087010BD0000C01F004000E100E012
:100B6000420000200015004041000020400000200D
:100B70004800002000C2C3C4C8C7C6C5C2C2C20064
:100B80000600030020000401FFFF00002110010007
:100B900000130040001200405100002054000020CB
:100BA0000F010020001000405000002004480068A1
:100BB00004490968884201D0012070470020FCE701
:100BC000540000205800002005490968481CC1173E
:100BD000090F091809110901411A014A11607047EA
:100BE0005800002010B50D480078002800D110BD35
:100BF00072B601200A49086100200A49C863012031
:100C000009490968012282401140002900D000E012
:100C100000BF62B6FFF728FF00BFE8E750000020E2
:100C200000100040C01F004000E200E005490968D4
:100C3000481CC117090F091809110901411A014A75
:100C4000116070475C00002070B504460D460248F4
:100C500030C0FFF7C7FF70BD4800002010B5044644
:100C6000044800787E2801DA02490C70FFF7BAFFC9
:100C700010BD00004000002010B50446024804707A
:100C8000FFF7B0FF10BD00004100002070B5034623
:100C90001C46002004E0860025688D511034401C5D
:100CA0009042F8D370BD000030B50B4604460221D7
:100CB000164D696000BF164909680029FBD0134929
:100CC000886000BF124909680029FBD001210F4D3F
:100CD000696000BF0E4909680029FBD0002104E0CB
:100CE0008D005D5925601034491C9142F8D300BF36
:100CF000074909680029FBD00021044D696000BF45
:100D0000034909680029FBD030BD000000E501401F
:100D100000E40140012008490860002007490860FC
:100D200000BF064800680028FBD001200249486047
:100D300003488068C0B2704700D0004000D1004036
:100D400000D5004001480078704700000C000020EA
:100D500070B58CB00446A078FF2803D1204600F07F
:100D6000F5FD4DE0A078012826D12648006A0390C1
:100D700001200007406E0290002069464871FFF78D
:100D8000C9FF05466D066D0E022D01DA022502E04F
:100D90007D2D00DD7D2568460571402101740D2102
:100DA0004174022181740C2201A91330FFF7AEF9BE
:100DB00004A800F03DFB23E0A078022820D10C22FB
:100DC000E11C09A8FFF7A2F908A9087900F056FB71
:100DD00008A9487900F058FB002213460B990A43F2
:100DE0000A981843154606462846314600F03EFB51
:100DF000054809A90EC9001D0EC000F0D3FD00BFB3
:100E00000CB070BD40000010D400002070B5044646
:100E1000002560784007800F0C490968884208D196
:100E200020462330FFF784F909490968884200D138
:100E3000012560784007800F044908602046233070
:100E4000FFF776F902490860284670BD640000206B
:100E5000680000200C48008CC0B2012812D10A485A
:100E6000808C0007000F00280CD10748806AF02111
:100E70000840402806D10448C06A0840002801D133
:100E8000012070470020FCE7C00F00F01948008CDB
:100E9000C0B201282CD11748808C0007000F002811
:100EA00026D11448806AF0210840002806D1114854
:100EB000C06A0840002801D1012070470D48806AAF
:100EC000F0210840102806D10A48C06A08400028CE
:100ED00001D10120F1E70748806AF021084030285D
:100EE00006D10448C06A0840002801D10120E4E787
:100EF0000020E2E7C00F00F000202949086001202F
:100F00008107086000BF264800680028FBD0082041
:100F100000F01CF9082000F02BF900F075FB002010
:100F2000FFF794FC112000F033F9C007C00F002830
:100F300029D1322000F0EAF800F060FB044600F00E
:100F40005DFB054617E000F059FB401B7D210901C0
:100F5000884210D9022000F0F9F8022000F036F99A
:100F600000F04CFB001BC82805D900F047FB0446E5
:100F7000082000F03BF9112000F00AF9C007C00F6B
:100F80000028E0D000BF082000F020F900F046F96A
:100F900000F0A4FBFFF7EAFC00F010FA00F002F802
:100FA000000100408AB09FE0504800F023FA00287A
:100FB0000AD04E480078402803D14C48FFF7C8FEBD
:100FC00002E04A4800F0C2FC494800F019FC002841
:100FD00006D047480078402802D0454800F028FA5B
:100FE00000F00CFB4349884246D900F007FB424918
:100FF00009686431884225D3002500F0FFFA3E4994
:101000000860052168460171417100F02BF901214A
:1010100048404840054300F0C7F9002801D00220AD
:1010200000E0002005436846857100F0F1F8099062
:10103000042209A901A80330FFF768F801A800F00D
:1010400085FC00BF00F0DAFA2C4909683231884289
:1010500012D300F0D3FA2949086040216846017292
:101060000221417201218172FFF76CFE02A9C87052
:1010700002A800F0DDF900BFFFF7E0FB0446012CF9
:1010800002D100F0F9F82AE0022C28D11D2000F04E
:101090006FF800F0B3FA054606E0FF20913000F04B
:1010A00035F8082000F0A2F8112000F071F8C00710
:1010B000C00F002805D100F0A1FA11496918884233
:1010C000EBD300F0E7F972B600BFBFF34F8F0D48C6
:1010D0000D49C860BFF34F8F00BF00BFFEE7FFF7A9
:1010E000D3FB00F001F900BF5EE700009400002090
:1010F000B4000020DC0500000000002004000020F7
:10110000B80B00000400FA0500ED00E000B5014650
:1011100000F074FA024600BF00F070FA53189842CB
:10112000FAD300BD10B58A0005231B07072424024B
:101130001B1984001A5110BD10B58A0005231B0726
:10114000072424021B1984001A5110BD0321052213
:10115000120707231B02D2188300D15070470321C6
:101160000522120707231B02D2188300D1507047B3
:1011700001218140014AD160704700000005005004
:1011800001218140014AD1607047000000050050F4
:10119000014603480069C840C007C00F70470000FF
:1011A00000050050014603480069C840C007C00F51
:1011B0007047000000050050014603480069C84020
:1011C000C007C00F7047000000050050012181409A
:1011D000014A9160704700000005005001218140E4
:1011E000014A9160704700000005005001238340D0
:1011F0001946064B5B68C340DA07D20F002A02D1BA
:10120000024B996001E0014BD96070470005005026
:1012100001480068704700007000002010B51D20D4
:10122000FFF79DFF1D20FFF7D9FF6420FFF76EFF3A
:101230000320FFF794FF0320FFF7A2FF6420FFF7CE
:1012400065FF0320FFF7CAFF6420FFF75FFF00215F
:101250000720FFF767FF03210120FFF763FF00F07E
:101260002DF810BD10B50120FFF7A6FF002801D111
:10127000012010BD0020FCE701211E20FFF752FFD6
:1012800000F0ECF901210320FFF74CFF0320FFF7EA
:1012900077FF1D20FFF774FF0820FFF771FF132071
:1012A000FFF76EFF00210520FFF73CFF01200249F8
:1012B000086000BFFEE700000005004010B51E20DA
:1012C000FFF74DFF1E20FFF789FF1320FFF747FFB1
:1012D0001320FFF783FF0520FFF741FF0520FFF7ED
:1012E0004FFF00F053F810BDF0B58BB000F086F959
:1012F0001E490968401A052835D91D48006800288C
:1013000031D11C48806880B20A9000F077F9174903
:1013100008600A98FFF700F804460022164BFEF713
:1013200083FF01910090FFF719F80390FFF702F88F
:101330000646124A124BFEF70FFF002201239B07BD
:1013400005910490FEF708FF00220E4B07910690CE
:10135000FEF702FF09910890FFF700F80A490860BC
:1013600000F014F800BF0BB0F0BD000074000020C6
:10137000007400400075004000F88F403333333371
:101380003333F33F00000840700000200348044955
:101390004860012008600349086070470A20000087
:1013A000007500400070004010B50720FFF704FFF3
:1013B000002801D0012010BD0020FCE770B50C48CA
:1013C000806800210A4AD2680B46114318430C4634
:1013D0000546FFF749FB06494879FFF74DFC0449EC
:1013E0000879FFF73BFC20462946FFF72DFC70BD2E
:1013F000D400002070B50546FFF7D8FB002812D0B6
:10140000FFF70EFB0446002C0CD02220005D07499C
:1014100008702278A11C2846FEF778FEFFF7D4FB5F
:10142000012070BD00BF0020FBE700000C00002081
:1014300070B50446FFF7DEFA002815D060781E2844
:1014400012DCFFF7FFFA0546002D0CD06078821CF5
:101450002146A81CFEF75AFE6078801C2870FFF712
:10146000E5FB012070BD00BF0020FBE770B504461E
:101470000D4620462946FFF7E7FB70BD10B5044630
:101480002046FFF7EBFB10BD10B504462046FFF7E2
:10149000F3FB10BD10B5142203490448FEF736FED5
:1014A00000F080FA10BD000028000020D4000020C9
:1014B0000C480068272148430B4940180B494860F5
:1014C0000B48006804218843094908600846006801
:1014D00008210843064908600120064908700649AA
:1014E00008617047540000200F01002000150040E3
:1014F0000012004051000020001000400146002969
:1015000004D02C4800682C4A506040E0294800680C
:101510002A4A904210D02A4800682A4A126890420B
:101520000AD0284A1268501CC217120F1218121142
:101530001201821A234B1A6022480068204A12685E
:10154000904210D01F480068272250431E4A80183E
:10155000194A50601B480068272250431A4A8018D5
:10156000144A106013E00420144A10704020907058
:1015700002221248C270012202710F484030806876
:10158000C2B20E4842710C4A50600A4A10600F48BD
:101590000068082290430D4A10601046006804223B
:1015A00010430A4A10600020094A10700120094ABD
:1015B000106170476C00002000150040E80000201A
:1015C0005C000020600000207F030020001200402B
:1015D000510000200010004010B502460020D2B299
:1015E000002108E01346CB40DB07DB0F0724641A19
:1015F000A3401843491C0829F4D310BD01480068D2
:10160000704700007800002010B501200E49C86026
:1016100004200E4908617D20C0000C49403108605B
:1016200001200B49086000040A49486002210A2091
:10163000FEF784FF0A2001218140074A116000BFA4
:1016400001200149086010BD00A0004000A5004035
:1016500000A2004000A3004000E100E010B501201E
:1016600008494860C86000200749086000211E2022
:10167000FFF762FD00210220FFF75EFD0020034915
:10168000087010BD00200040002500407C000020B4
:1016900000200E490978002900D170470C490968DB
:1016A0000C4A126891420ED00A490A680968491C1E
:1016B000084B19600849885C19460968802902DBD3
:1016C00000211A46116000BFE7E700007C000020FF
:1016D0008C00002090000020EF05002010B50520B0
:1016E0000007072109024018006A0C2188430521E0
:1016F000090707221202891808620520000711460F
:101700004018006A04210843052109078918086266
:101710000520000711464018806F884305210907FE
:1017200089188867012080071849886188601E2011
:101730001749C86001201549C86100201449486153
:1017400004201249886188600220114988600120C4
:101750000F494031C86200070D4948620420086003
:1017600001200C49886003210220FEF723FF02209C
:1017700001218140084A116000BF042007494860E8
:101780000120044908600649087010BD000500509A
:10179000002500400020004000E100E00023004060
:1017A0007C00002007480078002800D170470648D8
:1017B000006806490968884201D00120F6E7002048
:1017C000F4E700007C0000208C0000209000002046
:1017D00008490978002900D170470749C86100BF4E
:1017E0000649C9690029FBD00021044AD16100BF24
:1017F000F2E700007C0000200025004000210040AE
:1018000070B50546002068704C480078062804D161
:1018100000204A4908704A4908707EE0FFF738FF07
:101820000446464800780300FEF7EBFF07050F1C4F
:10183000264864757600AA2C01D1012000E0002022
:101840003E4908703F48047066E0AA2C01D102208E
:1018500000E00020394908703A48007800193949F9
:10186000087059E02C70032034490870354800781E
:101870000019344908704FE033480470314800784B
:1018800000193049087000202D4908702E48007852
:10189000002807DD2C4800781E2803DC0420274997
:1018A00008700AE0284800781E2803DD002023493C
:1018B000087002E00520214908702DE020480078DA
:1018C0001E2808DAA81C1E49097844541D480078CF
:1018D00000191C4908701A480078401C1849087003
:1018E0000846007818490978884202DB0520134928
:1018F000087011E013480078A04206D11248007821
:10190000687006200D49087004E000200B4908703B
:101910000B49087000E000BF00BFFFF743FF00283D
:1019200004D006480078062800D077E703480078FE
:10193000062801D1012070BD0020FCE70D00002029
:101940000E0000200F0000201000002070B504469B
:101950000025AA20FFF73CFFAA25AF20FFF738FF9C
:101960002846AF30C5B22078FFF732FF2078401903
:10197000C5B26078FFF72CFF60784019C5B2002629
:1019800008E0A11C885DFFF723FFA01C805D4019C3
:10199000C5B2761C6078B042F3DC2846FFF718FF2A
:1019A000012070BD70B51424A008A107890F00297B
:1019B00001D0012100E0002145180A48FEF7C5FFCB
:1019C0000646084806740121090709690122120721
:1019D0005269521E514308462A460249FFF764F9EC
:1019E00070BD0000D4000020081A00000000002094
:1019F000940000001E0800009C1A000094000020C3
:101A0000DC0D00002E0800000000000000000000B7
:101A10000024F400000000000000000000000000AE
:101A200000000000000000000000000000000000B6
:101A30000A00000002000000120000009A785634EC
:101A40000000000000000000020004000000000090
:101A50009A785634120000000100000000000000D7
:101A60000000000000000000000000000000000076
:101A70000000000000000000000000000000000066
:101A80000000000000000000000000000000000056
:0C1A90000000000000000000000000004A
:04000005000000C136
:00000001FF
